:100000000C942F000C9400000C9400000C94000041
:100010000C9400000C9400000C9400000C94000060
:100020000C9400000C9400000C9400000C94000050
:100030000C9400000C9400000C9400000C94000040
:100040000C9400000C9400000C9400000C94000030
:040050000C9400000C
:10005E00BFE5BDBFB4E0BEBFBFEFB1BBB2B3B160D1
:10006E00B2BBB2B3BD7FB2BB23EA17E503E00A957C
:10007E00F1F71A95E1F72A95D1F70000B2B3BE7FDA
:10008E00B2BBB2B3BD7FB2BB29E216E900E80A9556
:10009E00F1F71A95E1F72A95D1F7B2B3BE7FB2BB4D
:1000AE00B2B3B260B2BB23EA17E503E00A95F1F7EB
:1000BE001A95E1F72A95D1F70000B2B3BE7FB2BB15
:1000CE00B2B3BD7FB2BB29E216E900E80A95F1F79B
:0C00DE001A95E1F72A95D1F7C1CFFFCFAA
:0A00540005900D920197E1F7089561
:00000001FF
