:100000000C942F000C9400000C9400000C94000041
:100010000C9400000C9400000C9400000C94000060
:100020000C9400000C9400000C9400000C94000050
:100030000C9400000C9400000C9400000C94000040
:100040000C9400000C9400000C9400000C94000030
:040050000C9400000C
:10005E00BFE5BDBFB4E0BEBFCDB7DEB72197CDBF04
:10006E00DEBF2196BFEFB4BBB0E0B5BBB0E0B88346
:10007E0008810436A8F4BFEFB5BB1BE003E60A9572
:10008E00F1F71A95E1F7B0E0B5BB16EC06E60A9566
:10009E00F1F71A95E1F7000008810F5F0883E8CFAA
:1000AE00B0E0B88308810436C0F4BFEFB5BB1CE0E6
:1000BE0007E80A95F1F71A95E1F700000000B0E0A5
:1000CE00B5BB15EC01E40A95F1F71A95E1F70000BE
:1000DE00000008810F5F0883E5CFB0E0B883088188
:1000EE000436A8F4BFEFB5BB1CE00DEB0A95F1F793
:1000FE001A95E1F7B0E0B5BB15EC0CE00A95F1F7F7
:10010E001A95E1F7000008810F5F0883E8CFAECFA4
:02011E00FFCF11
:0A00540005900D920197E1F7089561
:00000001FF
