:100000000C942F000C9400000C9400000C94000041
:100010000C9400000C9400000C9400000C94000060
:100020000C9400000C9400000C9400000C94000050
:100030000C9400000C9400000C9400000C94000040
:100040000C9400000C9400000C9400000C94000030
:040050000C9400000C
:10005E00BFE5BDBFB4E0BEBFBFEFB1BBB0E0B2BB4A
:10006E00BFE0B2BB29E216E900E80A95F1F71A954E
:10007E00E1F72A95D1F7B0EFB2BB29E216E900E815
:10008E000A95F1F71A95E1F72A95D1F7BAEAB2BBBC
:10009E0029E216E900E80A95F1F71A95E1F72A9593
:1000AE00D1F7B5E5B2BB29E216E900E80A95F1F7FA
:1000BE001A95E1F72A95D1F7B1E0B2BB29E216E91C
:1000CE0000E80A95F1F71A95E1F72A95D1F710E0B5
:1000DE0007E0011790F002B3000F02BB1F9329E255
:1000EE0016E900E80A95F1F71A95E1F72A95D1F786
:1000FE001F91012F0F5F102FEBCFB0E8B2BB29E29B
:10010E0016E900E80A95F1F71A95E1F72A95D1F765
:10011E0010E007E0011790F002B3069502BB1F93A3
:10012E0029E216E900E80A95F1F71A95E1F72A9502
:10013E00D1F71F91012F0F5F102FEBCFB1E0B2BBA4
:10014E0029E216E900E80A95F1F71A95E1F72A95E2
:10015E00D1F710E007E0011798F002B3000F01602D
:10016E0002BB1F9329E216E900E80A95F1F71A95EA
:10017E00E1F72A95D1F71F91012F0F5F102FEACFCC
:10018E00B0E8B2BB29E216E900E80A95F1F71A9534
:10019E00E1F72A95D1F710E007E0011798F002B3C6
:1001AE000695006802BB1F9329E216E900E80A953E
:1001BE00F1F71A95E1F72A95D1F71F91012F0F5FED
:0801CE00102FEACF4DCFFFCF47
:0A00540005900D920197E1F7089561
:00000001FF
