:100000000C942F000C9400000C9400000C94000041
:100010000C9400000C9400000C9400000C94000060
:100020000C9400000C9400000C9400000C94000050
:100030000C9400000C9400000C9400000C94000040
:100040000C9400000C9400000C9400000C94000030
:100050000C94000005900D920197E1F70895BFE51B
:10006000BDBFB4E0BEBFBFEFB7BBB0E0B0936000B0
:10007000009160000530E0F4B0E8B8BB25E01FE077
:1000800002EF0A95F1F71A95E1F72A95D1F7B0E05A
:10009000B8BB25E01FE002EF0A95F1F71A95E1F7EA
:1000A0002A95D1F7009160000F5F00936000E0CFC8
:1000B000FFCFFFFFFFFFFFFFFFFFFFFFFFFFFFFF80
:00000001FF
