:030000000208688B
:0C086800787FE4F6D8FD758107020800D7
:07087400C2A0D2A1C2A12223
:07087B00D2A0D2A1C2A1220C
:0C084D0012087B12085975804112087BCC
:0E085900E4FFFE0FBF00010EBE75F8BF31F5C3
:01086700226E
:1008000075803812087412085975800E1208741217
:10081000085975800112087412085975800612086B
:100820007412085975808312087412085975804B28
:1008300012084D75805212084D75804E12087B12B9
:0D08400008597580C312087412085980B35E
:00000001FF
