:100000000C94DD000C9400000C9400000C94000093
:100010000C9400000C9400000C9400000C94000060
:100020000C9400000C9400000C9400000C94000050
:100030000C9400000C9400000C9400000C94000040
:100040000C9400000C9400000C9400000C94000030
:040050000C9400000C
:1001BA00BFE5BDBFB4E0BEBF0E947001CDB7DEB7D8
:1001CA002297CDBFDEBF21962F923F924F925F9228
:1001DA00BFEFB4BBBFEFBABBC0DFB0E62B2EB0E0B7
:1001EA003B2EA9DF29E216E900E80A95F1F71A95EC
:1001FA00E1F72A95D1F7B0E82B2EB5E23B2EB0E015
:10020A004B2E5B2E7DDFB0E0B0936F00B093700091
:10021A0020916F00309170000CE010E02017310738
:10022A00DCF421E730E000916F0010917000020FBA
:10023A00131F0883198359DF18812981E12FF22FAF
:10024A00008300916F00109170000F5F1F4F0093A1
:10025A006F0010937000DCCFB0EC2B2E2FDFB0E0D4
:10026A00B0936F00B093700020916F0030917000CE
:10027A000CE010E020173107BCF421E730E00091D0
:10028A006F0010917000F801E20FF31F0081202E19
:10029A00DCDE00916F00109170000F5F1F4F00931A
:1002AA006F0010937000E0CF29E216E900E80A9582
:1002BA00F1F71A95E1F72A95D1F79DCF5F904F9004
:0602CA003F902F90FFCFD2
:100164002F92B8E32B2EADDF23E018E008E70A95C1
:10017400F1F71A95E1F72A95D1F7BCE02B2EA1DF10
:100184001BE003E60A95F1F71A95E1F7B6E02B2E8A
:1001940098DF1BE003E60A95F1F71A95E1F7B1E061
:1001A4002B2E8FDF14E302EF0A95F1F71A95E1F78E
:0601B40000002F900895E9
:1000C6002BBAB5B3BE7FB5BBB5B3B260B5BB12E054
:1000D60009E00A95F1F71A95E1F7B5B3BD7FB5BB0F
:0E00E60012E009E00A95F1F71A95E1F7089586
:10014000F1010081003069F0F10100813F922F92AE
:10015000202E80DF2F903F9081010F5F1F4F1801ED
:04016000EFCF089540
:100054002BBAB5B3B160B5BBB5B3B260B5BB12E0F2
:1000640009E00A95F1F71A95E1F7B5B3BD7FB5BB81
:0E00740012E009E00A95F1F71A95E1F70895F8
:10010A00B4E0A101B201440F551F661F771FBA95CB
:10011A00D1F700E012E12AE730E0AEDF8B019C0163
:10012A000150104009B9012F10E000BDB6E8B0BD7A
:06013A00B8E1BAB9089516
:10008200C9019A01AB01B801A1E21A2EAA1BBB1B3E
:10009200FD010DC0AA1FBB1FEE1FFF1FA217B30752
:1000A200E407F50720F0A20BB30BE40BF50B661F78
:1000B200771F881F991F1A9469F76095709580952C
:0400C2009095089578
:0C00F4000BB107FD01C0FCCF0CB108955A
:0A01000005900D920197E1F70895B4
:1002E000A0E6B0E0E0EDF2E08FE090E00E94800058
:0202F00008956F
:0F02D00052464944207465737420636F6465005F
:00000001FF
