:0C08C2000A08BF86DBCFE6EDFD87FFEFE4
:10088C00E4F512F51375A00F74082513F8E6F5803E
:10089C001208B30513E51370020512C3940AE5128E
:0608AC006480948040DF2F
:0108B2002223
:0E08B300E4FFFE0FBF00010EBE75F8BF30F56A
:0108C1002214
:03000000020800F3
:0C080000787FE4F6D8FD758113020847EC
:10080C0002088CE493A3F8E493A34003F68001F26E
:10081C0008DFF48029E493A3F85407240CC8C333ED
:10082C00C4540F4420C8834004F456800146F6DFBC
:10083C00E4800B01020408102040809008C2E47E82
:10084C00019360BCA3FF543F30E509541FFEE493B1
:10085C00A360010ECF54C025E060A840B8E493A378
:10086C00FAE493A3F8E493A3C8C582C8CAC583CAA3
:10087C00F0A3C8C582C8CAC583CADFE9DEE780BE5B
:0108CE000029
:00000001FF
