:100000000C942F000C9400000C9400000C94000041
:100010000C9400000C9400000C9400000C94000060
:100020000C9400000C9400000C9400000C94000050
:100030000C9400000C9400000C9400000C94000040
:100040000C9400000C9400000C9400000C94000030
:040050000C9400000C
:10005E00BFE5BDBFB4E0BEBFCDB7DEB72197CDBF04
:10006E00DEBF2196BFEFB1BBB0E0B88308810C3084
:10007E0008F068C0B2B3B160B2BBB2B3BB7FB2BB63
:10008E00B2B3B2FBB2B3B1F9B2BBB2B3B1FBB2B35E
:10009E00B3F9B2BB29E216E900E80A95F1F71A9511
:1000AE00E1F72A95D1F7B2B3B860B2BBB2B3BB7F5A
:1000BE00B2BBB2B3B2FBB2B3B1F9B2BBB2B3B1FB26
:1000CE00B2B3B0F9B2BB29E216E900E80A95F1F72E
:1000DE001A95E1F72A95D1F7B2B3B260B2BBB2B3BB
:1000EE00BB7FB2BBB2B3B2FBB2B3B3F9B2BBB2B366
:1000FE00B3FBB2B3B0F9B2BB29E216E900E80A9538
:10010E00F1F71A95E1F72A95D1F7B2B3BD7FB2BBDD
:10011E00B2B3B1FBB2B3B3F9B2BBB2B3B3FBB2B3CA
:10012E00B0F9B2BBB2B3B460B2BB29E216E900E8D3
:10013E000A95F1F71A95E1F72A95D1F708810F5F25
:10014E00088394CFB0E0B88308810C3008F068C003
:10015E00B2B3BD7FB2BBB2B3B1FBB2B3B3F9B2BBF4
:10016E00B2B3B3FBB2B3B0F9B2BBB2B3B460B2BB0D
:10017E0029E216E900E80A95F1F71A95E1F72A95B2
:10018E00D1F7B2B3B260B2BBB2B3BB7FB2BBB2B344
:10019E00B2FBB2B3B3F9B2BBB2B3B3FBB2B3B0F905
:1001AE00B2BB29E216E900E80A95F1F71A95E1F7D4
:1001BE002A95D1F7B2B3B860B2BBB2B3BB7FB2BBB4
:1001CE00B2B3B2FBB2B3B1F9B2BBB2B3B1FBB2B31D
:1001DE00B0F9B2BB29E216E900E80A95F1F71A95D3
:1001EE00E1F72A95D1F7B2B3B160B2BBB2B3BB7F20
:1001FE00B2BBB2B3B2FBB2B3B1F9B2BBB2B3B1FBE5
:10020E00B2B3B3F9B2BB29E216E900E80A95F1F7E9
:10021E001A95E1F72A95D1F708810F5F088394CFDD
:04022E0023CFFFCF0C
:0A00540005900D920197E1F7089561
:00000001FF
