:100000000C949A000C9400000C9400000C940000D6
:100010000C9400000C9400000C9400000C94000060
:100020000C9400000C9400000C9400000C94000050
:100030000C9400000C9400000C9400000C94000040
:100040000C9400000C9400000C9400000C94000030
:040050000C9400000C
:10013400BFE5BDBFB4E0BEBF0E94F700CDB7DEB7D8
:100144002197CDBFDEBF21962F923F92BFEFB7BB61
:10015400BFEFB1BBC2DFB0E82B2E7ADFB0E62B2EA7
:10016400B0E03B2EA8DFB0EC2B2E72DFBCE62B2ECA
:10017400B0E03B2EA0DFB0E0B8830881053080F406
:10018400BCE12B2E65DF29E216E900E80A95F1F7B8
:100194001A95E1F72A95D1F708810F5F0883EDCF0F
:1001A400B0E0B8830881053080F4B8E12B2E50DF2D
:1001B40029E216E900E80A95F1F71A95E1F72A957C
:1001C400D1F708810F5F0883EDCFC5CF3F902F9003
:0201D400FFCF5B
:1000DE002F92B8E32B2EB7DF23E018E008E70A953E
:1000EE00F1F71A95E1F72A95D1F7BCE02B2EABDF8D
:1000FE001BE003E60A95F1F71A95E1F7B6E02B2E11
:10010E00A2DF1BE003E60A95F1F71A95E1F7B1E0DD
:10011E002B2E99DF14E302EF0A95F1F71A95E1F70A
:06012E0000002F9008956F
:1000540022BAB8B3BE7FB8BBB8B3B260B8BB12E0C3
:1000640009E00A95F1F71A95E1F7B8B3BD7FB8BB7B
:0E00740012E009E00A95F1F71A95E1F70895F8
:1000BA00F1010081003069F0F10100813F922F9235
:1000CA00202EDADF2F903F9081010F5F1F4F18011A
:0400DA00EFCF0895C7
:1000820022BAB8B3B160B8BBB8B3B260B8BB12E0C1
:1000920009E00A95F1F71A95E1F7B8B3BD7FB8BB4D
:0E00A20012E009E00A95F1F71A95E1F70895CA
:0A00B00005900D920197E1F7089505
:1001EE00A0E6B0E0E6EDF1E087E190E00E94580075
:0201FE00089562
:0C01D6004C434420444953504C41590014
:0B01E2002A2A20415652202A2A200021
:00000001FF
