:10000000D2C0FECFFDCFFCCFFBCFFACFF9CFF8CFD8
:10001000F7CFF6CFF5CFF4CFF3CFF2CFF1CFF0CFCC
:02002000EFCF20
:1001A600BFE5BDBFB2E0BEBF52D02F923F92BFEFB8
:1001B600BABBB7EFB7BBBFEFB4BBB0E0B1BBBFEFE5
:1001C600B2BBB0E0B8BBB6B3B860B6BBB6B3B3FBB0
:1001D600B8B3B2F9B8BBB8B3B2FBB8B3B1F9B8BBF0
:1001E600B8B3BE7FB8BBCADFB0E62B2EB0E03B2E5D
:1001F600B3DFB0EC2B2E54DFB8B3BF7EB8BBB8B3B9
:10020600BF7DB8BBB8B3BF7BB8BBB8B3B460B8BB2F
:10021600B8B3B260B8BB87DFB8B3BB7FB8BBB8B3FF
:10022600BD7FB8BB80DFB6B3B3FD01C0FCCFB8B3AA
:10023600B160B8BB20B2B0E03B2E47DFDACFFFCFCC
:00024600B8
:100182002F92B8E32B2E8EDFBEE02B2E8BDFB6E054
:100192002B2E88DFB1E02B2E85DFB0E82B2E82DFFD
:0401A2002F900895FD
:1000A60025BABBB3BE7FBBBBBBB3B260BBBB22E052
:1000B60014E00BEB0A95F1F71A95E1F72A95D1F7BB
:0A00C6000000BBB3BD7FBBBB089573
:10015E00F1010081003069F0F10100813F922F9290
:10016E00202E5BDF2F903F9081010F5F1F4F1801F4
:04017E00EFCF089522
:1000280025BABBB3B160BBBBBBB3B260BBBB22E0FC
:1000380014E00BEB0A95F1F71A95E1F72A95D1F739
:0A0048000000BBB3BD7FBBBB0895F1
:10012C0020E030E008EB1BE0021713078CF008B25C
:10013C00B0E80B2608BA12E00BE40A95F1F71A9511
:10014C00E1F70000000089010F5F1F4F9801EACF13
:02015C00089504
:1000D0002F923F923F922F9244E650E08101B9DF88
:1000E0008B01005D202EA0DF2F903F903F922F923A
:1000F0004AE050E08101ADDF8B014AE050E0A9DF2A
:100100008C01005D202E90DF2F903F904AE050E060
:1001100081019FDF8C01005D202E86DF3F902F90B4
:02012000089540
:10005200C801BA0197FB092E07260AD077FD04D002
:100062000CD006D000201AF4709561957F4F089548
:10007200F6F7909581959F4F0895AA1BBB1B51E1FE
:1000820007C0AA1FBB1FA617B70710F0A61BB70B06
:10009200881F991F5A95A9F780959095BC01CD01AB
:0400A2000895089520
:0A01220005900D920197E1F7089592
:10025400A0E6B0E0EAE4F2E08AE090E060DF08952E
:0A024A0041444320636865636B00C4
:00000001FF
