:0E099F000C0E4449474954414C204F2F502024
:1008000012095BE4F51AF51B740E251BF8E6F5805A
:100810001209B5120931051BE51B7002051AC394B4
:100820000CE51A6480948040DFD294D295D296D29F
:1008300092D291120980C292C2911209803093FD26
:10084000D29085B00D85B01CE4F51AF51BE50D7549
:10085000F00A847408251BF8A6F0E50D75F00A84EB
:10086000F50D051BE51B7002051A6403451A70DDC2
:1008700075808C1209AE120931751A00751B02C3FE
:10088000E51A6480948040A17408251BF8E62430A2
:10089000F5801209B5120931E51B151B70E1151A17
:0208A00080DDF9
:0709AE00C2A0D2A1C2A122E8
:0709B500D2A0D2A1C2A122D1
:10095B0075803812092E75800112092E75800612CA
:10096B00092E75800C12092E7580801209AE7F023C
:05097B007E00020935B9
:07092E001209AE7F027E00FA
:10093500E4FDFCC3ED9FEE6480F8EC6480985015EF
:10094500E4FBFA0BBB00010ABA27F8BB10F50DBD95
:0509550000010C80DE32
:01095A00227A
:10098000E4FFFEE4FDFC0DBD00010CED641E4C70A7
:0E099000F5B2970FBF00010EBE03E8BFE9E508
:01099E002236
:030000000208A251
:0C08A200787FE4F6D8FD75811C0208E99F
:1008AE00020800E493A3F8E493A34003F68001F258
:1008BE0008DFF48029E493A3F85407240CC8C3334B
:1008CE00C4540F4420C8834004F456800146F6DF1A
:1008DE00E4800B010204081020408090099FE47E02
:1008EE00019360BCA3FF543F30E509541FFEE4930F
:1008FE00A360010ECF54C025E060A840B8E493A3D6
:10090E00FAE493A3F8E493A3C8C582C8CAC583CA00
:10091E00F0A3C8C582C8CAC583CADFE9DEE780BEB8
:0109AD000049
:00000001FF
