:100000000C942F000C9400000C9400000C94000041
:100010000C9400000C9400000C9400000C94000060
:100020000C9400000C9400000C9400000C94000050
:100030000C9400000C9400000C9400000C94000040
:100040000C9400000C9400000C9400000C94000030
:040050000C9400000C
:10005E00BFE5BDBFB4E0BEBFCDB7DEB72497CDBF01
:10006E00DEBF2196BFEFB1BBB0E0B883B983288164
:10007E0039810FEF10E020173107D4F4088102BB4D
:10008E00B0E0BA83BB832A813B8102E010E02017E7
:10009E0031073CF40A811B810F5F1F4F0A831B83BC
:1000AE00F2CF088119810F5F1F4F08831983DFCFAD
:1000BE00BFEFB883B0E0B9832881398100E010E04A
:1000CE0002171307D4F4088102BBB0E0BA83BB83D6
:1000DE002A813B8102E010E0201731073CF40A81AF
:1000EE001B810F5F1F4F0A831B83F2CF088119817B
:0E00FE000150104008831983DFCFB6CFFFCF2B
:0A00540005900D920197E1F7089561
:00000001FF
