:100C08002020202020414456414E434520202020CA
:030C1800003A009F
:03000B00020BE203
:100BE200C0E0050FE50F7002050E758CFC758A6773
:030BF200D0E0321E
:100B0D007E00120B2475A030D2817F017E00120B66
:070B1D0024C2817F067E0067
:100B2400E50F2FFFE50E3EFEEFB50FFCEEB50EF818
:010B3400229E
:0608F7008B158A1689171B
:1008FD00EDD3940FED50062480F5A0800424B0F5BF
:10090D00A0C280D281C2817F017E00120B24D280D1
:10091D00E4F51AF51BEDD39519503EBD1014ED24D9
:10092D00B0F5A0C280D281C2817F017E00120B245E
:10093D00D280AB15AA16A917851B82851A831208BA
:10094D0000F5A0051BE51B7002051AD281C2817F3F
:09095D00017E00120B240D80BC88
:01096600226E
:080967008E158F168B17AA05EF
:10096F00E4FBAE15AF167C007D0A12082D74182B10
:10097F00F8A605AE15AF167C007D0A12082D8E1550
:10098F008F160BBB02DCEAD3940FEA50062480F5D6
:10099F00A0800424B0F5A0C280D281C2817F017EE5
:1009AF0000120B24D2807B01EAD3951750187418CC
:1009BF002BF8E62430F5A01BD281C2817F017E0087
:0609CF00120B240A80E275
:0109D50022FF
:100C1B00C28075A001D281C2817F067E00020B24A7
:100BB800D294000000D295000000C294000000C248
:050BC800950000002271
:100BCD00C294000000D295000000D294000000C233
:050BDD0095000000225C
:0E0C3A00000000D295000000C29500000022CC
:030C5400120B5828
:050C5700C294020C3AFA
:050C5C00D294020C3AE5
:100B3500E4FEC374079EFDEFA805088003A2E71332
:100B4500D8FB30E004D2948002C294120C3A0EBE57
:020B550008E0B6
:010B5700227B
:100B7A00120BB87FD0120B35120B8AE4FF120B3519
:100B8A00D2940000002094FDD295000000C2952264
:100B5800D294000000E4FED295EF25E054FEFDA2F9
:100B680094E4334DFF000000C2950000000EBE085B
:010B7800E696
:010B79002259
:1009D600120B7A120BCD000000120BB87FD1120B4E
:1009E60035120B8A120C54EF547FF508120C54EF93
:1009F600547FF50B120B58120C57EF543FF5141297
:100A06000B58120C57EF5407F513120B58120C57CC
:100A1600EF543FF50C120B58120C57EF541FF50DFF
:0B0A2600120B58120C5C8F12020BCD5B
:100A7A00120B7AE508547F120B86E50B547F120B92
:100A8A0086E514543F120B86E5135407120B86E5CC
:100A9A000C543F120B86E50D541F120B86AF12122F
:080AAA000B35120B8A020BCD83
:100BF500EF75F00A84C454F0FEEF75F00A84E5F051
:030C05002EFF229D
:0F0C2B00EFC4540F75F00AA4FEEF540F2EFF22F2
:100AB2001209D6AF12120C2B8F12AF0D120C2B8F04
:100AC2000DAF0C120C2B8F0CAF14120C2B8F14AF1A
:0E0AD2000B120C2B8F0BAF08120C2B8F08226F
:100AE000AF12120BF58F12AF0D120BF58F0DAF0C6D
:100AF000120BF58F0CAF14120BF58F14AF0B120BFA
:0D0B0000F58F0BAF08120BF58F08020A7A73
:100B9A00C28175892175A892759850D29C758A6709
:0E0BAA00E4F58C758BFA758DFAD28CD28E2202
:100A3100C281C2807F14120B0D75A030D2817F015B
:100A41007E00120B24C2817F06120B0D75A0381295
:100A51000B1575A0C8120B1575A001120B1575A009
:100A610006120B1575A00CD2817F017E00120B249A
:090A7100C2817F067E00020B2405
:10088200120B9A120A31120C1B7BFF7A0C79087533
:10089200190FE4FD1208F77FD07E07120B24750BA7
:1008A20034751403750801750C12750D0575120463
:1008B200120AE07BFF7A0C79197519127D1212085F
:1008C200F77BFF7A0C79197519157D151208F71245
:1008D2000AB2AF147E007B117D10120967AF0B7E46
:1008E200007B147D13120967AF087E007B177D160B
:0508F20012096780DA25
:03000000020C48A7
:0C0C4800787FE4F6D8FD75811C0208825C
:10080000BB010CE58229F582E5833AF583E02250AD
:1008100006E92582F8E622BBFE06E92582F8E222F7
:0D082000E58229F582E5833AF583E4932211
:10082D00BC000BBE0029EF8DF084FFADF022E4CCAF
:10083D00F875F008EF2FFFEE33FEEC33FCEE9DEC78
:10084D00984005FCEE9DFE0FD5F0E9E4CEFD22EDBE
:10085D00F8F5F0EE8420D21CFEADF075F008EF2F08
:10086D00FFED33FD4007985006D5F0F222C398FDF9
:05087D000FD5F0EA2296
:00000001FF
