:100B2B002E002020202020414456414E43452020BA
:030B3B0020200077
:03000B00020B18CD
:100B1800C0E0051DE51D7002051C758CFC758A6713
:030B2800D0E032E8
:100A26007E00120A3D75A030D2817F017E00120A37
:070A36003DC2817F067E0036
:100A3D00E51D2FFFE51C3EFEEFB51DFCEEB51CF8C8
:010A4D002286
:0B0915007BFF7A0B792D75170FE4FDB6
:060920008B138A148915F7
:10092600EDD3940FED50062480F5A0800424B0F595
:10093600A0C280D281C2817F017E00120A3DD28090
:10094600E4F518F519EDD39517503EBD1014ED24B6
:10095600B0F5A0C280D281C2817F017E00120A3D1D
:10096600D280AB13AA14A91585198285188312089B
:1009760093F5A00519E51970020518D281C2817F89
:09098600017E00120A3D0D80BC47
:01098F002245
:080800008E098F0A8D0B8B0C91
:10080800E4F512AE09AF0A7C007D0A1208C0740D27
:100818002512F8A605AE09AF0A7C007D0A1208C0A9
:100828008E098F0A0512E512B405D8E50BD3940F8B
:10083800E50B50062480F5A0800424B0F5A0C28002
:10084800D281C2817F017E00120A3DD2807C04756C
:100858001204E50BD3950C5031BC01127CC87BFF08
:100868007A0B792B850B17AD0B1209208018740DA4
:100878002512F8E62430F5A015121CD281C2817F1A
:0A088800017E00120A3D050B80C836
:010892002243
:100B5000C28075A001D281C2817F067E00020A3D5B
:100AEE00D294000000D295000000C294000000C213
:050AFE0095000000223C
:100B0300C294000000D295000000D294000000C2FD
:050B1300950000002226
:0E0B6000000000D295000000C29500000022A7
:050B7A00D294020B60A3
:100A4E00000000E4FEC374079EFDEFA805088002B7
:100A5E00C313D8FC30E004D2948002C294120B600F
:040A6E000EBE08E1CF
:010A72002261
:100AD100120AEE7FA0120A4E120AE1AF04120A4E68
:0D0AE100D294D295000000C29500000022C2
:100A7300D294000000E4FED295EF25E054FEFDA2DF
:100A830094E4334DFF000000C2950000000EBE0841
:010A9300E67C
:010A9400223F
:100A9500AC07120AD1120AEE7FA1120A4E120AE120
:0E0AA500120A738F1B120B7A120B03AF1B2267
:100B3E00AC05AB07120AD1AF03120A4E120AE1023C
:020B4E000B0397
:100AB300C28175892175A892759850D29C758A67F1
:0E0AC300E4F58C758BFA758DFAD28CD28E22EA
:1009DD00C281C2807F14120A2675A030D2817F0198
:1009ED007E00120A3DC2817F06120A2675A03812BA
:1009FD000A2E75A0C8120A2E75A001120A2E75A016
:100A0D0006120A2E75A00CD2817F017E00120A3DBE
:090A1D00C2817F067E00020A3D41
:10099000120AB31209DD120B50120915E4F508AD65
:1009A00008AF08120B3E7F327E00120A3D0508E5B3
:1009B00008C394C840E9E4F508120B50AF08120AC6
:1009C000958F1A7E007B157D10120800050812090C
:0D09D000157FD07E07120A3D120B5080DF0C
:03000000020B6E82
:0C0B6E00787FE4F6D8FD75811D02099027
:10089300BB010CE58229F582E5833AF583E022501A
:1008A30006E92582F8E622BBFE06E92582F8E22264
:0D08B300E58229F582E5833AF583E493227E
:1008C000BC000BBE0029EF8DF084FFADF022E4CC1C
:1008D000F875F008EF2FFFEE33FEEC33FCEE9DECE5
:1008E000984005FCEE9DFE0FD5F0E9E4CEFD22ED2B
:1008F000F8F5F0EE8420D21CFEADF075F008EF2F75
:10090000FFED33FD4007985006D5F0F222C398FD65
:050910000FD5F0EA2202
:00000001FF
